:020000040800F2
:100000000000052099F8000885F600088BF6000826
:1000100091F6000897F600089DF600080000000021
:10002000000000000000000000000000A3F600082F
:10003000B1F6000800000000BFF60008CDF6000889
:10004000E9F80008E9F80008E9F80008E9F800080C
:10005000E9F80008E9F80008E9F80008E9F80008FC
:10006000E9F80008E9F80008E9F80008E9F80008EC
:10007000E9F80008E9F80008E9F80008E9F80008DC
:10008000E9F80008E9F80008E9F80008E9F80008CC
:10009000E9F80008E9F80008E9F80008E9F80008BC
:1000A000E9F80008E9F80008E9F80008E9F80008AC
:1000B000E9F80008E9F80008E9F80008E9F800089C
:1000C000E9F80008E9F80008E9F80008E9F800088C
:1000D000E9F80008E9F80008E9F80008E9F800087C
:1000E000E9F80008E9F80008E9F80008E9F800086C
:1000F000E9F80008E9F80008E9F80008E9F800085C
:10010000E9F80008E9F80008E9F80008E9F800084B
:10011000E9F80008E9F80008DDF60008E9F8000849
:10012000E9F80008E9F80008E9F80008E9F800082B
:10013000E9F80008CDC10008E9F80008E9F800086E
:10014000E9F80008E9F80008E9F80008E9F800080B
:10015000E9F80008E9F80008E9F80008E9F80008FB
:10016000E9F80008E9F80008E9F80008E9F80008EB
:10017000E9F80008E9F80008E9F8000800000000C4
:10018000E9F80008E9F80008E9F80008E9F80008CB
:10019000E9F80008E9F80008E9F80008E9F80008BB
:1001A000E9F80008E9F80008E9F80008E9F80008AB
:1001B000E9F80008E9F80008E9F80008E9F800089B
:0801C000E9F80008E9F8000865
:1001D00010B5054C237833B9044B13B10448AFF381
:1001E00000800123237010BD3804002000000000AF
:1001F000DC3A010808B5034B1BB103490348AFF3D0
:10020000008008BD000000003C040020DC3A01082A
:1002100001F0FF01102A2BDB10F0070F08D010F8B7
:10022000013B013A8B422DD010F0070F42B3F6D1BB
:10023000F0B441EA012141EA014122F007047FF0D4
:1002400000070023F0E80256083C85EA010586EA2B
:10025000010685FA47F5A3FA87F586FA47F6A5FA67
:1002600087F68EB9EED1F0BC01F0FF0102F0070273
:1002700032B110F8013B013A83EA010313B1F8D11E
:100280000020704701387047002D06BF35460338FF
:10029000073815F0010F07D1013015F4807F02BF38
:1002A000013015F4C03F0130F0BC0138704700BF89
:1002B00010F8012B11F8013B012A28BF9A42F7D010
:1002C000D01A7047034613F8012B002AFBD1181AE5
:1002D0000138704781F0004102E000BF83F0004325
:1002E00030B54FEA41044FEA430594EA050F08BFD1
:1002F00090EA020F1FBF54EA000C55EA020C7FEA95
:10030000645C7FEA655C00F0E2804FEA5454D4EB11
:100310005555B8BF6D420CDD2C4480EA020281EADB
:10032000030382EA000083EA010180EA020281EA13
:100330000303362D88BF30BD11F0004F4FEA013165
:100340004FF4801C4CEA113102D0404261EB410174
:1003500013F0004F4FEA03334CEA133302D05242FA
:1003600063EB430394EA050F00F0A780A4F10104B6
:10037000D5F1200E0DDB02FA0EFC22FA05F28018F0
:1003800041F1000103FA0EF2801843FA05F35941D6
:100390000EE0A5F120050EF1200E012A03FA0EFC55
:1003A00028BF4CF0020C43FA05F3C01851EBE3717F
:1003B00001F0004507D54FF0000EDCF1000C7EEB9C
:1003C00000006EEB0101B1F5801F1BD3B1F5001FDA
:1003D0000CD349085FEA30004FEA3C0C04F10104F9
:1003E0004FEA445212F5800F80F09A80BCF1004F22
:1003F00008BF5FEA500C50F1000041EB045141EAA4
:10040000050130BD5FEA4C0C404141EB0101013C6C
:1004100028BFB1F5801FE9D291F0000F04BF01465B
:100420000020B1FA81F308BF2033A3F10B03B3F12D
:1004300020020CDA0C3208DD02F1140CC2F10C02BD
:1004400001FA0CF021FA02F10CE002F11402D8BF1B
:10045000C2F1200C01FA02F120FA0CFCDCBF41EAE7
:100460000C019040E41AA2BF01EB0451294330BDB6
:100470006FEA04041F3C1CDA0C340EDC04F1140493
:10048000C4F1200220FA04F001FA02F340EA03006A
:1004900021FA04F345EA030130BDC4F10C04C4F1B0
:1004A000200220FA02F001FA04F340EA0300294690
:1004B00030BD21FA04F0294630BD94F0000F83F4DA
:1004C000801306BF81F480110134013D4EE77FEABD
:1004D000645C18BF7FEA655C29D094EA050F08BF09
:1004E00090EA020F05D054EA000C04BF19461046EA
:1004F00030BD91EA030F1EBF0021002030BD5FEA2E
:10050000545C05D14000494128BF41F0004130BD55
:1005100014F580043CBF01F5801130BD01F00045A9
:1005200045F0FE4141F470014FF0000030BD7FEA1C
:10053000645C1ABF194610467FEA655C1CBF0B4617
:10054000024650EA013406BF52EA033591EA030F2E
:1005500041F4002130BD00BF90F0000F04BF002126
:10056000704730B54FF4806404F132044FF0000559
:100570004FF0000150E700BF90F0000F04BF0021D2
:10058000704730B54FF4806404F1320410F0004538
:1005900048BF40424FF000013EE700BF42004FEA33
:1005A000E2014FEA31014FEA02701FBF12F07F43B0
:1005B00093F07F4F81F06051704732F07F4208BF67
:1005C000704793F07F4F04BF41F40021704730B56E
:1005D0004FF4607401F0004521F000411CE700BFBA
:1005E00050EA010208BF704730B54FF000050AE03D
:1005F00050EA010208BF704730B511F0004502D53E
:10060000404261EB41014FF4806404F132045FEA3F
:10061000915C3FF4D8AE4FF003025FEADC0C18BFE8
:1006200003325FEADC0C18BF033202EBDC02C2F1DA
:10063000200300FA03FC20FA02F001FA03FE40EA6C
:100640000E0021FA02F11444BDE600BF70B54FF070
:10065000FF0C4CF4E06C1CEA11541DBF1CEA13554E
:1006600094EA0C0F95EA0C0F00F0DEF82C4481EAB6
:10067000030621EA4C5123EA4C5350EA013518BFD6
:1006800052EA033541F4801143F4801338D0A0FBC3
:1006900002CE4FF00005E1FB02E506F00042E0FB70
:1006A00003E54FF00006E1FB03569CF0000F18BF76
:1006B0004EF0010EA4F1FF04B6F5007F64F540741E
:1006C00004D25FEA4E0E6D4146EB060642EAC621B1
:1006D00041EA55514FEAC52040EA5E504FEACE2E1E
:1006E000B4F1FD0C88BFBCF5E06F1ED8BEF1004F21
:1006F00008BF5FEA500E50F1000041EB045170BD9D
:1007000006F0004646EA010140EA020081EA0301E0
:10071000B4EB5C04C2BFD4EB0C0541EA045170BDDC
:1007200041F480114FF0000E013C00F3AB8014F156
:10073000360FDEBF002001F0004170BDC4F100049F
:10074000203C35DA0C341BDC04F11404C4F1200520
:1007500000FA05F320FA04F001FA05F240EA02007B
:1007600001F0004221F0004110EBD37021FA04F6B1
:1007700042EB06015EEA430E08BF20EAD37070BD6B
:10078000C4F10C04C4F1200500FA04F320FA05F0CA
:1007900001FA04F240EA020001F0004110EBD370CC
:1007A00041F100015EEA430E08BF20EAD37070BD3C
:1007B000C4F1200500FA05F24EEA020E20FA04F315
:1007C00001FA05F243EA020321FA04F001F00041C4
:1007D00021FA04F220EA020000EBD3705EEA430E35
:1007E00008BF20EAD37070BD94F0000F0FD101F064
:1007F0000046400041EB010111F4801F08BF013C9D
:10080000F7D041EA060195F0000F18BF704703F0DA
:100810000046520043EB030313F4801F08BF013D61
:10082000F7D043EA0603704794EA0C0F0CEA13551D
:1008300018BF95EA0C0F0CD050EA410618BF52EAD7
:100840004306D1D181EA030101F000414FF00000DD
:1008500070BD50EA410606BF1046194652EA4306EB
:1008600019D094EA0C0F02D150EA013613D195EA5F
:100870000C0F05D152EA03361CBF104619460AD1A7
:1008800081EA030101F0004141F0FE4141F47001B1
:100890004FF0000070BD41F0FE4141F4780170BDA1
:1008A00070B54FF0FF0C4CF4E06C1CEA11541DBF06
:1008B0001CEA135594EA0C0F95EA0C0F00F0A7F808
:1008C000A4EB050481EA030E52EA03354FEA013135
:1008D00000F088804FEA03334FF0805545EA131348
:1008E00043EA12634FEA022245EA111545EA106510
:1008F0004FEA00260EF000419D4208BF964244F1A7
:10090000FD0404F5407402D25B084FEA3202B61AC5
:1009100065EB03055B084FEA32024FF480104FF499
:10092000002CB6EB020E75EB030E22BFB61A75460D
:1009300040EA0C005B084FEA3202B6EB020E75EBA0
:10094000030E22BFB61A754640EA5C005B084FEA08
:100950003202B6EB020E75EB030E22BFB61A7546D5
:1009600040EA9C005B084FEA3202B6EB020E75EBE0
:10097000030E22BFB61A754640EADC0055EA060EA1
:1009800018D04FEA051545EA16754FEA06164FEAE4
:10099000C30343EA52734FEAC2025FEA1C1CC0D190
:1009A00011F4801F0BD141EA00014FF000004FF01D
:1009B000004CB6E711F4801F04BF01430020B4F1DE
:1009C000FD0C88BFBCF5E06F3FF6AFAEB5EB030C96
:1009D00004BFB6EB020C5FEA500C50F1000041EB93
:1009E000045170BD0EF0004E4EEA113114EB5C0460
:1009F000C2BFD4EB0C0541EA045170BD41F4801133
:100A00004FF0000E013C90E645EA060E8DE60CEA3A
:100A1000135594EA0C0F08BF95EA0C0F3FF43BAF57
:100A200094EA0C0F0AD150EA01347FF434AF95EA0E
:100A30000C0F7FF425AF104619462CE795EA0C0FF2
:100A400006D152EA03353FF4FDAE1046194622E7BF
:100A500050EA410618BF52EA43067FF4C5AE50EA99
:100A600041047FF40DAF52EA43057FF4EBAE12E789
:100A70004FF0FF3C06E000BF4FF0010C02E000BF6A
:100A80004FF0010C4DF804CD4FEA410C7FEA6C5C4D
:100A90004FEA430C18BF7FEA6C5C1BD001B050EAF0
:100AA000410C0CBF52EA430C91EA030F02BF90EADB
:100AB000020F0020704710F1000F91EA030F58BF9A
:100AC000994208BF90422CBFD8176FEAE37040F0FC
:100AD000010070474FEA410C7FEA6C5C02D150EA9A
:100AE000013C07D14FEA430C7FEA6C5CD6D152EA55
:100AF000033CD3D05DF8040B704700BF844610461A
:100B000062468C461946634600E000BF01B5FFF718
:100B1000B7FF002848BF10F1000F01BD4DF808EDE8
:100B2000FFF7F4FF0CBF012000205DF808FB00BFB9
:100B30004DF808EDFFF7EAFF34BF012000205DF813
:100B400008FB00BF4DF808EDFFF7E0FF94BF012060
:100B500000205DF808FB00BF4DF808EDFFF7CEFF61
:100B600094BF012000205DF808FB00BF4DF808EDA0
:100B7000FFF7C4FF34BF012000205DF808FB00BF71
:100B80004FEA410212F5001215D211D56FF47873B5
:100B9000B3EB625212D94FEAC12343F0004343EA58
:100BA000505311F0004F23FA02F018BF4042704733
:100BB0004FF00000704750EA013005D111F00040BD
:100BC00008BF6FF0004070474FF00000704700BF53
:100BD0004A0011D212F5001211D20DD56FF47873BC
:100BE000B3EB62520ED44FEAC12343F0004343EA11
:100BF000505323FA02F070474FF00000704750EA5C
:100C0000013002D14FF0FF3070474FF000007047C5
:100C10007BB972B90029BEBF00204FF0004106E049
:100C200008BF00281CBF6FF000414FF0FF3000F0FC
:100C3000F5B9ADF1080C6DE904CE002909DB002BF4
:100C40001ADB00F083F8DDF804E0DDE9022304B0EC
:100C50007047404261EB4101002B1BDB00F076F84E
:100C6000DDF804E0DDE9022304B0404261EB41011C
:100C7000524263EB43037047524263EB430300F07D
:100C800065F8DDF804E0DDE9022304B0404261EBE1
:100C900041017047524263EB430300F057F8DDF81F
:100CA00004E0DDE9022304B0524263EB43037047E2
:100CB00053B94AB9002908BF00281CBF4FF0FF31C3
:100CC0004FF0FF3000F0AAB9ADF1080C6DE904CE89
:100CD00000F03CF8DDF804E0DDE9022304B07047E1
:100CE00038B50022002304460D46FFF721FF28B93E
:100CF00020462946BDE8384000F00AB8204605F1F4
:100D0000004100F005F8404261EB410138BD00BFF1
:100D1000D0B50C4B002206460F46FFF797FCFFF7B5
:100D200057FF0446FFF718FC074B0022FFF78EFC25
:100D300002460B4630463946FFF7D0FAFFF748FF28
:100D40002146D0BD0000F03D0000F0412DE9F04704
:100D5000089D04468E46002B4DD18A42944669D99F
:100D6000B2FA82F252B101FA02F3C2F1200120FA82
:100D700001F10CFA02FC41EA030E94404FEA1C48D0
:100D8000210CBEFBF8F61FFA8CF708FB16E341EACC
:100D9000034306FB07F199420AD91CEB030306F152
:100DA000FF3080F01F81994240F21C81023E634473
:100DB0005B1AA4B2B3FBF8F008FB103344EA034417
:100DC00000FB07F7A7420AD91CEB040400F1FF332C
:100DD00080F00A81A74240F207816444023840EA69
:100DE0000640E41B00261DB1D4400023C5E90043A2
:100DF0003146BDE8F0878B4209D9002D00F0EF8025
:100E00000026C5E9000130463146BDE8F087B3FA57
:100E100083F6002E4AD18B4202D3824200F2F9803F
:100E2000841A61EB030301209E46002DE0D0C5E942
:100E3000004EDDE702B9FFDEB2FA82F2002A40F08E
:100E40009280A1EB0C014FEA1C471FFA8CFE012691
:100E5000200CB1FBF7F307FB131140EA01410EFB35
:100E600003F0884208D91CEB010103F1FF3802D2DC
:100E7000884200F2CB804346091AA4B2B1FBF7F0D6
:100E800007FB101144EA01440EFB00FEA64508D9F9
:100E90001CEB040400F1FF3102D2A64500F2BB8036
:100EA0000846A4EB0E0440EA03409CE7C6F1200785
:100EB000B34022FA07FC4CEA030C20FA07F401FACB
:100EC00006F31C43F9404FEA1C4900FA06F3B1FB54
:100ED000F9F8200C1FFA8CFE09FB181140EA0141B9
:100EE00008FB0EF0884202FA06F20BD91CEB010156
:100EF00008F1FF3A80F08880884240F28580A8F1AE
:100F000002086144091AA4B2B1FBF9F009FB1011FF
:100F100044EA014100FB0EFE8E4508D91CEB01019D
:100F200000F1FF346CD28E456AD90238614440EA40
:100F30000840A0FB0294A1EB0E01A142C846A646C0
:100F400056D353D05DB1B3EB080261EB0E0101FA49
:100F500007F722FA06F3F1401F43C5E900710026A6
:100F60003146BDE8F087C2F12003D8400CFA02FCFC
:100F700021FA03F3914001434FEA1C471FFA8CFE0C
:100F8000B3FBF7F007FB10360B0C43EA064300FBFC
:100F90000EF69E4204FA02F408D91CEB030300F19A
:100FA000FF382FD29E422DD9023863449B1B89B251
:100FB000B3FBF7F607FB163341EA034106FB0EF3DA
:100FC0008B4208D91CEB010106F1FF3816D28B4287
:100FD00014D9023E6144C91A46EA004638E72E4653
:100FE000284605E70646E3E61846F8E64B45A9D24B
:100FF000B9EB020864EB0C0E0138A3E74646EAE7BA
:10100000204694E74046D1E7D0467BE7023B614467
:1010100032E7304609E76444023842E7704700BFD0
:10102000B0B500AF0EF082FC034600221C46154608
:1010300022462B4610461946B0BD0000B0B596B00A
:1010400000AF0EF052FC00F033F800F01BF900F096
:10105000E9F800F099F807F11803184607F008FBC3
:101060000F4B3C1D1D460FCD0FC42B68236004237E
:101070003B603B46391D07F118000A4A0DF034F970
:1010800007F1180307F11800074A084905F0C2F8EC
:1010900007F11803642118460DF0D5FAF8E700BFF0
:1010A000103B010840020020D9EC0008003B010879
:1010B00080B594B000AF07F120033022002118461C
:1010C00011F062FB07F10C0300221A605A609A606B
:1010D000DA601A612A4B1B6C294A43F0805313646F
:1010E000274B1B6C03F08053BB60BB68254B1B6810
:1010F000244A43F440431360224B1B6803F44043EB
:101100007B607B6802233B620123FB6210233B630D
:101110000223BB630023FB6308233B64D8237B6467
:101120000223BB640223FB6407F1200318460FF07F
:101130004BFA0346002B01D000F018F90FF0F4F938
:101140000346002B01D000F011F90F23FB600223AE
:101150003B6100237B614FF4A053BB614FF480538C
:10116000FB6107F10C03072118460FF0D1FC034681
:10117000002B01D000F0FAF800BF5037BD4680BD0B
:10118000003802400070004080B500AF1F4B204A7D
:101190001A60204B00221A701E4B80225A701D4B81
:1011A000E1229A701B4B0022DA701A4B00221A714E
:1011B000184B00225A71154B164A5A60134B4FF4C4
:1011C00000029A60114B144ADA60104B134A1A61FC
:1011D0000E4B40F2F4525A610C480EF0B9FC034633
:1011E000002B01D000F0C2F8382200210C4811F089
:1011F000CBFA0B4B21221A60094B4FF440025A6183
:10120000074B00221A6100BF80BD00BF8C04002084
:1012100000800240C405002094030020F402002056
:101220005404002080B500AF144B154A1A60134BCC
:101230004FF4E1325A60114B00229A600F4B0022AA
:10124000DA600E4B00221A610C4B0C225A610B4BD8
:1012500000229A61094B0022DA61084B00221A62CF
:10126000064B00225A62054810F03AFD0346002B57
:1012700001D000F07BF800BF80BD00BF3C0500201E
:101280000048004080B58AB000AF07F11403002287
:101290001A605A609A60DA601A61294B1B6B284AFF
:1012A00043F004031363264B1B6B03F004033B6101
:1012B0003B69234B1B6B224A43F001031363204B12
:1012C0001B6B03F00103FB60FB681D4B1B6B1C4A8F
:1012D00043F0020313631A4B1B6B03F00203BB6062
:1012E000BB68174B1B6B164A43F008031363144B80
:1012F0001B6B03F008037B607B68114B1B6B104A70
:1013000043F0400313630E4B1B6B03F040033B6041
:101310003B68002280210B480FF0ECF880237B61B2
:101320000123BB610023FB6100233B6207F114032F
:10133000194604480EF032FF00BF2837BD4680BD75
:10134000003802400004024080B582B000AF7860EF
:101350007B681B68044A934201D10EF0D3FA00BFA8
:101360000837BD4680BD00BF0010004080B400AF0C
:1013700072B600BFFEE780B483B000AF78607B68D0
:10138000192B02DC7B68413311E07B68332B02DCD4
:101390007B6847330BE07B683D2B02DC7B68043BBA
:1013A00005E07B683E2B01D12B2300E02F2318465C
:1013B0000C37BD465DF8047B704780B483B000AF46
:1013C00078607B68402B05DD7B685A2B02DC7B68EC
:1013D000413B22E07B68602B05DD7B687A2B02DCD9
:1013E0007B68473B19E07B682F2B05DD7B68392B39
:1013F00002DC7B68043310E07B682B2B01D13E2399
:101400000BE07B682F2B01D13F2306E07B683D2B4F
:1014100001D1402301E04FF0FF3318460C37BD46A1
:101420005DF8047B7047000080B586B000AF0346CE
:10143000B9607A60FB737B6803F00302394B83FB6E
:101440000231D317C91A0B465B000B44D31A7B61D8
:101450007B69002B19D1FB7B9B08DBB21846FFF799
:101460008AFF01467B68BA681344CAB21A70FB7BD4
:101470001B01DAB27B6801337B607B68B9680B447F
:1014800002F03002D2B21A7046E07B69012B1FD104
:101490007B68BA6813441A78FB7B1B09DBB21343E1
:1014A000DBB21846FFF767FF01467B68BA68134452
:1014B000CAB21A70FB7B9B00DAB27B6801337B6097
:1014C0007B68B9680B4402F03C02D2B21A7023E088
:1014D0007B68BA6813441A78FB7B9B09DBB2134321
:1014E000DBB21846FFF747FF01467B68BA68134432
:1014F000CAB21A70FB7B03F03F031846FFF73BFFAD
:1015000001467B6801337B607B68BA681344CAB2CA
:101510001A707B6801337B607B6818461837BD46BC
:1015200080BD00BF5655555580B584B000AF78607A
:1015300039603B68FB603B6803F00303002B05D078
:101540003A6879680020FFF76FFF3860FB6803F0A6
:101550000303022B0BD13B68013B3B6007E03B6878
:101560005A1C3A601A467B6813443D221A703B6845
:1015700003F00303002BF2D13B687A681344002286
:101580001A703B6818461037BD4680BD80B586B0DE
:1015900000AFF860B9607A6000233B6100237B6193
:1015A0000CE07B69FA6813441B783A69796818463D
:1015B000FFF73AFF38617B6901337B617A69BB6869
:1015C0009A42EEDB39697868FFF7AEFF38613B6914
:1015D00018461837BD4680BD80B58AB000AFF860A8
:1015E000B9607A60FB68002B03D0BB68FA681344CB
:1015F00000E000233B6200237B626AE0FB681B780B
:101600001846FFF7DAFEF861FB6801331B781846CD
:10161000FFF7D3FEB861FB6802331B781846FFF76B
:10162000CCFE7861FB6803331B781846FFF7C5FED4
:101630003861FB69402B0ED0FB69002B0BDBBB69CB
:10164000402B08D0BB69002B05DB7B69002B02DB3C
:101650003B69002B01DA002349E0FB699B005AB289
:10166000BB691B115BB2134359B27B6A5A1C7A6285
:101670001A467B681344CAB21A70FB6802331B789F
:101680003D2B23D0BB691B015AB27B699B105BB217
:10169000134359B27B6A5A1C7A621A467B68134418
:1016A000CAB21A70FB6803331B783D2B0ED07B69DE
:1016B0009B015AB23B695BB2134359B27B6A5A1C15
:1016C0007A621A467B681344CAB21A70FB68043304
:1016D000FB60FB68002B04D0FB6803333A6A9A4234
:1016E0008CD87B6A7A68134400221A707B6A184689
:1016F0002837BD4680BD80B584B000AF78603960C2
:101700007B685B682C33FB6002E0FB681B68FB6056
:10171000FB681B683A689A42F7D13B681A68FB6815
:101720001A60386810F0F0FF00BF1037BD4680BD6A
:1017300080B584B000AF78607B685B68DB6AFB6073
:101740000DE0FB681B68BB60FB685B687A689A42C7
:1017500003D1F9687868FFF7CEFFBB68FB60FB68D0
:10176000002BEED100BF00BF1037BD4680BD80B555
:101770008CB004AFF860B9607A603B600023FB6115
:10178000BB6A002B05D03B6B002B02D13B680022CB
:101790001A703B6B052B40F38480002393E07A683A
:1017A000FB691344FA6813441B78BB61BB69002BC7
:1017B00003D1FB690133FB617BE0BB6903F0C0032C
:1017C000002B2FD0BB691B0203F47C537968FA69A4
:1017D0000A440132F9680A44127813437B617B6939
:1017E0000133BA689A4219D9FA687B6913441B78A5
:1017F00003F0C003002B11D13B6B01330293FB6A52
:101800000193BB6A00933B687A69B968F868FFF78F
:10181000AEFF0346002B01D1002354E0FB690233E5
:10182000FB6146E07A68FB691A44BB6913440133E3
:10183000BA689A4201D8002345E0FB6A002B0BD01E
:10184000FA6ABB6A9A4204D23A68FB6A13442E22AF
:101850001A70FB6A0133FB62FA6ABB691344BA6A05
:101860009A420CD93A68FB6AD0187A68FB6913442B
:101870000133FA681344BA69194610F05DFFFA6A39
:10188000BB691344FB62BA69FB6913440133FB6112
:10189000FA6ABB6A9A4204D23A68FB6A134400228D
:1018A0001A707A68FB6913440133BA689A423FF6AA
:1018B00076AFBB6A002B05D0BB6A013B3A68134484
:1018C00000221A70FB6918462037BD4680BD80B5DE
:1018D00088B004AFF860B9607A603B60002302937F
:1018E00000230193BB6900933B687A68B968F86884
:1018F000FFF73DFF034618461037BD4680BD80B553
:1019000088B002AFF860B9607A60FB70FA687B68F3
:1019100013447B61FA68BB6813443B6108220021D1
:10192000386A10F031FFBB680B2B01D8002374E03C
:10193000BB68B3F5007F01D900236EE07A693B698B
:101940009A4201D3002368E00023009300237A68C1
:10195000B968F868FFF7BBFF03469AB23B6A1A8082
:101960003B6A1B88002B01D1002356E03B6A1B8891
:1019700004337A6913447B617A693B699A4201D9DD
:1019800000234AE07B69043B1B781B021AB27B6987
:10199000033B1B781BB213431BB29AB23B6A5A80BB
:1019A0007B69023B1B781B021AB27B69013B1B78E7
:1019B0001BB213431BB29AB23B6A9A80FB78002B8E
:1019C00003D03B6A1B88043327E07B6906337B61C5
:1019D0007A693B699A4201D900231EE07B69023B88
:1019E0001B781B021AB27B69013B1B781BB21343A5
:1019F0001BB29AB23B6ADA803B6ADB881A467B6983
:101A000013443A699A4201D2002306E03B6A1B88DC
:101A10001A463B6ADB8813440A3318461837BD461A
:101A200080BD80B58CB002AFF860B9607A60FB68A9
:101A3000FB610C233B624FF490720021786810F038
:101A4000A3FEBB680B2B01D80023A0E0FB699B8899
:101A5000184609F0ABFB0346012B01D9002396E0A1
:101A6000FB69DB88184609F0A1FB03460A2B01D964
:101A700000238CE0FB691B88184609F097FB03469E
:101A80001A467B681A8000237B6215E007F1100379
:101A9000009301233A6AB968F868FFF730FFB8612C
:101AA000BB69002B01D1002371E03A6ABB69134482
:101AB0003B627B6A01337B62FB699B88184609F0B5
:101AC00075FB03461A467B6A9342DFD300237B6291
:101AD00052E007F11003009300233A6AB968F868EE
:101AE000FFF70DFFB861BB69002B01D100234EE069
:101AF0007B6820334FF4807200923A6AB968F868C4
:101B0000FFF7E5FE3A6ABB6913443B62FB8A042B8C
:101B100014D17B8A012B11D1BB8A012B0ED17B689A
:101B200000221A777B6808333A6A043AF9680A4453
:101B300012681A607B6801229A7027E0FB8A102BDA
:101B400017D17B8A1C2B14D1BB8A012B11D17B6846
:101B500001221A777B6803F10C003B6A103BFA689C
:101B600013441022194610F0E7FD7B6801229A7099
:101B70000CE07B6A01337B62FB69DB88184609F065
:101B800015FB03461A467B6A9342A2D301231846EB
:101B90002837BD4680BD0000B0B5ECB000AF07F5FA
:101BA000D874A4F5D274206007F5D870A0F5D4706D
:101BB000016007F5D871A1F5D6710A6007F5D872F2
:101BC000A2F5D872136007F5D873A3F5D4731B6818
:101BD000022B31D107F5D873A3F5D6731B68D3E96F
:101BE0000023C7E9662307F5D873A3F5D2731B68F2
:101BF0005B68DB6AC7F8AC3119E0D7F8AC311B6819
:101C0000C7F8A431D7F8AC31D3E90201D7E966238C
:101C1000904271EB030306D2D7F8AC315B689C4964
:101C2000184600F04FFBD7F8A431C7F8AC31D7F80D
:101C3000AC31002BE1D126E107F5D873A3F5D473BD
:101C40001B68072B40F0F1800023C7F8A83107F587
:101C5000D873A3F5D2731B68986C07F5D873A3F5F6
:101C6000D2731B681B6D07F178021946FFF7D9FE86
:101C7000034683F00103DBB2002B1DD0854B40F2FD
:101C800007128549012005F00DFA0346002B02D00A
:101C9000824805F061FA07F5D873A3F5D2731B6883
:101CA0009A6C07F5D873A3F5D2731B681B6D1946A0
:101CB000104605F085FA9FE007F5D873A3F5D273B7
:101CC0001B685B68DB6AC7F8AC3190E0D7F8AC31D1
:101CD0001B68C7F8A43107F5D873A3F59C731A885D
:101CE000D7F8AC311B8A9A427CD1D7F8AC315B680B
:101CF00093F8B03003F00803DBB2002B53D007F5A4
:101D0000D873A3F59C739B78002B41D0D7F8AC31E6
:101D10005B689A8C07F5D873A3F59C739A80D7F803
:101D2000AC315A6807F5D873A3F59C7302F124040B
:101D30001D1D0FCD0FC495E8070084E80700554B23
:101D400040F215125449032005F0ACF90346002B6C
:101D500017D0D7F8AC315B685C6CD7F8AC315B68F6
:101D6000243307F114016422184605F0F5FF0146FB
:101D700007F1780303F120020B462146484805F09D
:101D8000EBF9D7F8AC315B6818460CF001FB1CE0AE
:101D9000D7F8AC31586807F1780320331A46414927
:101DA00000F090FA11E03B4B4FF491723A49012058
:101DB00005F078F90346002B07D0D7F8AC315B6803
:101DC0005B6C1946384805F0C7F907F5D873A3F5D9
:101DD000D273D7F8AC111868FFF78DFC0123C7F850
:101DE000A83100E000BFD7F8A431C7F8AC31D7F86C
:101DF000AC31002B7FF46AAFD7F8A831002B0CD19F
:101E0000244B4FF494722449012005F04BF903460A
:101E1000002B02D0254805F09FF907F5D873A3F5EC
:101E2000D2731B6800221A652DE007F5D873A3F55D
:101E3000D4731B68092B26D107F5D873A3F5D27389
:101E40001B685B68DB6AC7F8AC3118E0D7F8AC31C7
:101E50001B68C7F8A431D7F8AC315B681449184641
:101E600000F030FA07F5D873A3F5D273D7F8AC11A8
:101E70001868FFF740FCD7F8A431C7F8AC31D7F8A1
:101E8000AC31002BE2D100BF07F5D877BD46B0BD1D
:101E9000243B010878560108303B0108483B010803
:101EA000643B0108743B01088C3B0108A43B01081A
:101EB000B43B010890B5CBB000AF07F59474A4F51E
:101EC0008E74206007F59470A0F59070016019463B
:101ED00007F59473A3F591731A8007F59473A3F231
:101EE00023130A461A7007F114034FF48672002177
:101EF000184610F049FC07F59473A3F591731B88FD
:101F0000184609F053F903461A4607F59473A3F5EA
:101F10008A731A804FF4807009F048F903461A4614
:101F200007F59473A3F58A735A80012009F03EF9EE
:101F300003461A4607F59473A3F58A739A80002323
:101F4000C7F82031D7F82031C7F8243154E007F51D
:101F50009473A3F590731B681A68D7F8243113445F
:101F60001B782E2B09D007F59473A3F590731B688B
:101F70005B68D7F824219A422FD3D7F82431DAB2FC
:101F8000D7F82031DBB2D31AD9B207F59473A3F591
:101F90008A72D7F8203113440C330A461A70D7F8E6
:101FA0002031013307F1140208331344181D07F5DB
:101FB0009473A3F590731B681A68D7F82031D11871
:101FC000D7F82421D7F82031D31A1A4610F0B4FBE1
:101FD000D7F824310133C7F8203107F59473A3F5FE
:101FE00090731B685B68D7F824219A4209D2D7F80E
:101FF00024310133C7F82431D7F82431FA2BA6D97C
:1020000000E000BF07F11402D7F820310833134471
:10201000043305221649184610F08EFBD7F82031FC
:102020000533C7F8203107F59473A3F223131B7807
:10203000002B09D0D7F82031033B07F59472A2F5A5
:102040008A7213441C221A73D7F8203103F10C0250
:1020500007F1140107F59473A3F58E7318680CF05B
:102060004DFB0346184607F59677BD4690BD00BF69
:10207000C03B01082DE9F043A3B002AFF860B9609E
:102080007A603B600023FB673B681B68002B04D130
:102090005149F86800F016F916E03B685B68002BC0
:1020A00012D1FB6858683B6819680023002206F0CB
:1020B0009BF902463B685A603B685B68002B03D083
:1020C0003B685B68454A1A673B685B68002B04D134
:1020D0004349F86800F0F6F878E01821012010F084
:1020E000D9FA0346FB67FB6F002B04D13D49F86822
:1020F00000F0E8F86AE0FB685B68DB6ABB67BB6F0F
:10210000002B04D0BB6F1B8A01339AB200E001227E
:10211000FB6F1A82FB685B68DA6AFB6F1A60FB6808
:102120005B68FA6FDA62FEF77BFF02460B4679685E
:10213000C8170C46054612EB040843EB0509FB6F74
:10214000C3E90289FB6FFA685A60FA6892F8B03006
:1021500043F0080382F8B030234B40F26912234960
:10216000042004F09FFF0346002B1AD0FB685C6C30
:10217000BB685B681E46BB681D683B685B682433B0
:1021800007F114016422184605F0E6FD0246FB6FD4
:102190001B8A019300922B4632462146144804F0D4
:1021A000DBFF3B685868FB6F1A8A97F8A030B96864
:1021B000FFF780FE034683F00103DBB2002B05D05E
:1021C0003B685B680B49184600F07CF800BF843719
:1021D000BD46BDE8F08300BFC83B0108991B00085D
:1021E000F43B0108003C010880560108303B01081F
:1021F0000C3C0108303C010880B588B002AF786023
:10220000396007F10C033968184608F0FEFE38689B
:1022100008F02EFF0346184608F0C8FF03461A468A
:102220007B689A847B6824331A4607F10C0393E891
:10223000030006F014F80346002B03D078680CF076
:10224000A7F819E07B685B681B7E002B03D07B68D6
:102250005B680C3302E07B685B6804337B617B68FE
:102260005B685A697B685B681B7E07F10C01009311
:102270007B697868FFF7FEFE00BF1837BD4680BD5A
:1022800090B585B000AFF860B9607A60FB689B6E6E
:10229000002B07D0FB689C6EFB68DB6E7A68B96820
:1022A000F868A047FB681B6F002B07D0FB681C6F0A
:1022B000FB685B6F7A68B968F868A04700BF14379D
:1022C000BD4690BD0EB480B595B000AF786007F103
:1022D0006003FB6007F10C0307F11000FA6D402169
:1022E00000F096F8134B4FF4CA721349012004F022
:1022F000D9FE0346002B08D07B68596C7B681A6CAA
:1023000007F110030D4804F027FF7A6892F8B13006
:1023100043F0100382F8B13007F110031A46002190
:102320007868FFF7ADFF00BF5437BD46BDE8804079
:1023300003B0704790560108303B01083C3C01084F
:1023400080B584B000AF03463960FB711346BB71A2
:102350003B68FB60BB79002B0DD0FB689B689A1C27
:10236000FB685B689A4206D9FB689B680233194692
:10237000F86803F09FFFFB689B689A1CFB685B682A
:102380009A4211D8FB681A68FB689B68581CF96868
:1023900088601344FA791A70FB681A68FB689B68B6
:1023A000134400221A700FE0FB689A68FB685B68B0
:1023B0009A4209D2FB681A68FB689B68581CF96846
:1023C0008860134400221A7000BF1037BD4680BDDC
:1023D00080B582B000AF03463960FB71FB79002203
:1023E00039681846FFF7ACFF00BF0837BD4680BD0F
:1023F00080B582B000AF03463960FB71FB790122E2
:1024000039681846FFF79CFF00BF0837BD4680BDFE
:1024100080B58AB000AFF860B9607A603B60FB6855
:102420007B61BB68BB610023FB6100233B6207F15A
:1024300014013B687A68094800F02AFE78627A6ADB
:10244000BB689A4204D2FA687B6A134400221A706D
:102450007B6A18462837BD4680BD00BFD1230008DF
:102460000CB480B584B000AF7860396007F11C030C
:10247000BB6007F10803BA6939687868FFF7C8FFDD
:10248000F860FB6818461037BD46BDE8804002B0D2
:1024900070470CB480B584B000AF78603960002319
:1024A000FB6007F11C03BB6007F10803BA693968D8
:1024B000786800F0EDFDF860FB6818461037BD46FF
:1024C000BDE8804002B0704780B483B000AF786050
:1024D0007B682F2B04DD7B68392B01DC012300E0B6
:1024E000002303F00103DBB218460C37BD465DF84C
:1024F000047B704780B487B000AFF860B9607A6041
:1025000000237B617B695A1C7A611A46FB6813447D
:1025100065221A707B695A1C7A611A46FB6813445B
:102520007A68D2B21A70BB68B3F5C87F01DD0023A8
:1025300057E0BB68092B07DC7B695A1C7A611A4695
:10254000FB68134430221A70BB68632B1CDDBB6828
:10255000274A82FB03125211DB17D31ADAB27B69C6
:10256000591C79611946FB680B443032D2B21A709B
:10257000BB681F4A82FB03125111DA178A1A6421C1
:1025800001FB02F29B1ABB60BB68092B1DDDBB6817
:10259000184A82FB03129210DB17D31ADAB27B6956
:1025A000591C79611946FB680B443032D2B21A705B
:1025B000BA68104B83FB02139910D317C91A0B4644
:1025C0009B000B445B00D31ABB60BB68DAB27B692B
:1025D000591C79611946FB680B443032D2B21A702B
:1025E0007B6918461C37BD465DF8047B704700BF09
:1025F0001F85EB516766666680B485B000AF87EDD6
:10260000000BD7E90023C7E90223D7E902014FF005
:1026100000024FF000030A000023134623F000439A
:10262000084A934206D1D7E902231346002B01D171
:10263000012300E0002318461437BD465DF8047BF3
:10264000704700BF0000F07F80B485B000AF87ED19
:10265000000BD7E90023C7E90223D7E902014FF0B5
:1026600000024FF000030A000023134623F000414C
:10267000D7E902231346002B14BF01230023DBB24A
:102680000B44064A93428CBF01230023DBB2184659
:102690001437BD465DF8047B704700BF0000F07F33
:1026A000B0B59EB002AF7861396187ED020B7A60F8
:1026B0000023BB6600237B6600233B664FF00002CD
:1026C0004FF00003D7E90201FEF728FA0346002B7A
:1026D00007D0804B804A39697869FFF7C1FE03460D
:1026E000BFE297ED020BFFF787FF0346002B14D0E4
:1026F0004FF000024FF00003D7E90201FEF736FA6F
:102700000346002B01D0754B00E0754B724A3969C6
:102710007869FFF7A5FE0346A3E297ED020BFFF7EA
:1027200093FF0346002B07D06E4B6B4A39697869DB
:10273000FFF796FE034694E24FF000024FF00003CD
:10274000D7E90201FEF7F4F90346002B0DD0BC686F
:10275000FB6883F00045C7E90245BB6E5A1CBA66A8
:1027600070333B442D2203F8582CD7E90223C7E9E4
:1027700012234FF000025C4BC7E914230AE04FF02C
:1027800000025A4BD7E91401FDF760FF02460B46E1
:10279000C7E914234FF00002544BD7E90201FEF7BA
:1027A000DBF90346002B11D0D7E91423D7E9020146
:1027B000FEF776F802460B46104619464FF0000227
:1027C0004A4BFEF7C9F90346002BD8D10AE04FF077
:1027D0000002464BD7E91401FEF762F802460B46A9
:1027E000C7E914234FF000023F4BD7E90201FEF77F
:1027F000A9F90346002B11D0D7E91423D7E9020128
:10280000FEF74EF802460B46104619464FF00002FE
:10281000354BFEF797F90346002BD8D10023FB6612
:102820004FF00002324BD7E91401FDF70FFF0246CB
:102830000B46C7E916230DE04FF000022B4BD7E9FA
:102840001601FEF72DF802460B46C7E91623FB6E6C
:102850000133FB66FA6E7B689A42EDDBD7E91623FB
:10286000D7E90201FDF73CFD02460B46C7E902230A
:102870004FF000021C4BC7E914230DE04FF000029B
:102880001A4BD7E91401FDF7E1FE02460B46C7E9F2
:1028900014233B6E01333B664FF00002134BD7E924
:1028A0000201FEF759F90346002B11D0D7E9142392
:1028B000D7E90201FDF7F4FF02460B461046194620
:1028C0004FF00002094BFEF747F90346002BD5D124
:1028D0001EE000BF483C01084C3C0108503C010888
:1028E000543C01085C3C01080000F03F000024401B
:1028F000000014404FF00002994BD7E91401FDF796
:10290000CFFF02460B46C7E914233B6E013B3B66F3
:102910004FF00002934BD7E90201FEF709F9034695
:10292000002B11D0D7E91423D7E90201FDF7B8FF36
:1029300002460B46104619464FF00002894BFEF73F
:10294000F7F80346002BD5D13A6E7B689A4230DB0C
:10295000D7E91423D7E91201FDF7A2FF02460B467F
:1029600043EC172B07F118037A68B0EE470AF0EE34
:10297000670A28211846FFF793FE03467B66BA6E66
:102980007B6E134407F1180213442B22396E18464C
:10299000FFF7B0FD02467B6E13447B6607F1180318
:1029A00000937B6E704A39697869FFF759FD0346D9
:1029B00057E17B685B423A6E9A4231DCD7E91423D7
:1029C000D7E91201FDF76CFF02460B4643EC172BCB
:1029D00007F118037A68B0EE470AF0EE670A28217B
:1029E0001846FFF75DFE03467B66BA6E7B6E1344A6
:1029F00007F11802D0183B6E5B422D221946FFF7F3
:102A000079FD02467B6E13447B6607F11803009341
:102A10007B6E554A39697869FFF722FD034620E14C
:102A20000023FB66D7E91423C7E916233FE0D7E963
:102A30001623D7E90201FDF733FF02460B46104685
:102A40001946FEF79DF803467B647B6E002B02DC83
:102A50007B6C002B0CDD7B6CDAB27B6E591C7966CB
:102A6000B96E0B443032D2B270333B4403F8582C69
:102A7000786CFDF781FDD7E91623FDF7E7FD0246E7
:102A80000B46D7E90201FDF729FC02460B46C7E9D0
:102A900002234FF00002324BD7E91601FDF700FF89
:102AA00002460B46C7E91623FB6E0133FB664FF067
:102AB00000022C4BD7E91601FEF74EF80346002B17
:102AC00004D0BA6E7B6E1344272BB0DD7B6E002BD7
:102AD0001BD1BB6E5A1CBA6670333B44302203F8DC
:102AE000582C12E07B6E5A1C7A6670333B443022BD
:102AF00003F8582C4FF00002194BD7E91601FDF7E7
:102B0000CFFE02460B46C7E916234FF00002154BD5
:102B1000D7E91601FEF720F80346002B04D07A6EA1
:102B2000BB6E1344272BDDDDBA6E7B6E1344272B5F
:102B300009DCBB6E5A1CBA667A6E134470333B4490
:102B40002E2203F8582C0023FB6603A3D3E90023AD
:102B5000C7E9162344E000BF9A9999999999B93F1A
:102B6000000024400000F03F603C0108D7E9162334
:102B7000D7E90201FDF794FE02460B4610461946BE
:102B8000FDF7FEFF03463B643B6CDAB27B6E591CDB
:102B90007966B96E0B443032D2B270333B4403F8DD
:102BA000582C386CFDF7E8FCD7E91623FDF74EFDED
:102BB00002460B46D7E90201FDF790FB02460B46A1
:102BC000C7E902234FF00002284BD7E91601FDF7B1
:102BD00067FE02460B46C7E91623FB6E0133FB6610
:102BE000BA6E7B6E1344272B07DC7A6E7B689A42A1
:102BF000BCDB02E07B6E013B7B667B6E002B09DD5C
:102C0000BA6E7B6E1344013B70333B4413F8583C5F
:102C1000302BEFD07B6E002B0CDDBA6E7B6E134435
:102C2000013B70333B4413F8583C2E2B02D17B6E92
:102C3000013B7B667A6EBB6E13447B667B6E272BF3
:102C400001DD27237B6607F118027B6E1344002207
:102C50001A7007F11803064A39697869FFF700FC12
:102C6000034618467037BD46B0BD00BF0000244083
:102C70004C3C0108B0B58CB000AFF860C7E9002348
:102C8000534BBB61D7E90023C7E90A2300237B62CA
:102C900097F84030002B12D0D7E90023002B0EDA32
:102CA0007B6A5A1C7A62FA6813442D221A70D7E99B
:102CB00000230021544261EB0305C7E90A4597F858
:102CC0004430002B21D000233B6219E0BB6A03F0A3
:102CD0000F03BA691A443B6A591C3962796A0B447A
:102CE000F9680B4412781A70D7E90A014FF0000214
:102CF0004FF00003020942EA01720B09C7E90A23F7
:102D0000D7E90A231343E1D125E000233B621EE00B
:102D1000D7E90A014FF00A024FF00003FDF7C8FFA0
:102D2000BB691A443B6A591C3962796A0B44F968D9
:102D30000B4412781A70D7E90A014FF00A024FF0DB
:102D40000003FDF7B5FF02460B46C7E90A23D7E9A2
:102D50000A231343DCD10023FB6122E07A6AFB697A
:102D60001344FA6813441B78FB757A6A3B6A1A4469
:102D7000FB69D31A013BFA681A44796AFB690B4470
:102D8000F9680B4412781A707A6A3B6A1A44FB6934
:102D9000D31A013BFA681344FA7D1A70FB690133B8
:102DA000FB613B6A5B08FA699A42D7D3D7E90023F3
:102DB000134306D13B6A5A1C3A62FA681344302224
:102DC0001A703A6A7B6A134418463037BD46B0BD64
:102DD000683C010880B586B000AFF860B9607A60E1
:102DE0003B6000237B6109E07B695A1C7A617A6849
:102DF00013441A78FB68B968104698477A693B68AB
:102E00009A4205D27A687B6913441B78002BEBD178
:102E10007B6918461837BD4680BD000080B487B076
:102E200000AF78600B46FB70194B3B61194BFB60A0
:102E3000FB78002B01D03B6900E0FB687B611BE065
:102E40007B691B781A467B68934212D1FB78002B72
:102E500007D07A693B69D31A1A46FB6813441B787A
:102E60000FE07A69FB68D31A1A463B6913441B7852
:102E700007E07B6901337B617B691B78002BDFD125
:102E8000002318461C37BD465DF8047B704700BF21
:102E90007C3C0108843C010880B582B000AF7860BA
:102EA00001217868FFF7BAFF034618460837BD4688
:102EB00080BD80B588B000AFF860B9607A603B60D3
:102EC0000023FB610023BB610023FB6123E07A68E0
:102ED000FB6913441B781846FFF7DEFF0346FB75BA
:102EE000FB7D002B0CD0FB68B9685C209847FA7D0D
:102EF000FB68B96810469847BB690133BB6107E0BE
:102F00007A68FB6913441A78FB68B96810469847D9
:102F1000FB690133FB61FA693B689A4205D27A6822
:102F2000FB6913441B78002BD1D1FA69BB691344A8
:102F300018462037BD4680BD80B586B000AFF8602A
:102F4000B9607A603B6002237B61FB68B96822202C
:102F500098473B687A68B968F868FFF7AAFF0246A5
:102F60007B6913447B61FB68B968222098477B69C1
:102F700018461837BD4680BD80B58AB000AFF860EE
:102F8000B9607A603B6000233B62404BFB61FB68A9
:102F9000B968222098473B6A01333B6200237B6279
:102FA00063E07A687B6A13441B78FB767B6A0133A3
:102FB0003A689A4205D97B6A01337A6813441B78D0
:102FC00000E00023BB767B6A02333A689A4205D957
:102FD0007B6A02337A6813441B7800E000237B7617
:102FE000FB7E9B08DBB21A46FB6913441B783B75DA
:102FF000FB7E1B0103F03003BA7E1209D2B21343E9
:103000001A46FB6913441B787B753D23BB753D2332
:10301000FB757B6A01333A689A420CD9BB7E9B00F0
:1030200003F03C037A7E9209D2B213431A46FB693D
:1030300013441B78BB757B6A02333A689A4206D9FF
:103040007B7E03F03F03FA6913441B78FB7507F19D
:1030500014020423B968F868FFF7BCFE02463B6A15
:1030600013443B627B6A03337B627A6A3B689A4211
:1030700097D3FB68B968222098473B6A01333B62CB
:103080003B6A18462837BD4680BD00BF8C3C01080E
:103090002DE9F043ADB002AFF860B9607A603B60F3
:1030A0000023C7F8A4300023C7F8A03000F045BCC7
:1030B0007A68D7F8A43013441B78252B40F02A8473
:1030C0000023C7F894300023C7F890300023C7F8D6
:1030D0008C304FF0FF33C7F88830202387F83F301B
:1030E000002387F88730D7F8A4300133C7F8A4301D
:1030F0007A68D7F8A43013441B7887F8863097F89D
:103100008630232B10D1D7F894300133C7F8943090
:10311000D7F8A4300133C7F8A4307A68D7F8A430C0
:1031200013441B7887F8863097F886302D2B10D102
:1031300097F88730013387F88730D7F8A430013308
:10314000C7F8A4307A68D7F8A43013441B7887F8FE
:10315000863097F88630302B2BD1302387F83F30DC
:10316000D7F8A4300133C7F8A4307A68D7F8A43070
:1031700013441B7887F886301BE0D7F88C20134661
:103180009B0013445B00C7F88C3097F88620D7F873
:103190008C301344303BC7F88C30D7F8A43001335F
:1031A000C7F8A4307A68D7F8A43013441B7887F89E
:1031B000863097F886301846FFF786F90346002BCD
:1031C000DBD197F886302E2B59D1D7F8A4300133B4
:1031D000C7F8A4307A68D7F8A43013441B7887F86E
:1031E000863097F886302A2B14D13B681B68191D4E
:1031F0003A6811601B68C7F88830D7F8A4300133EB
:10320000C7F8A4307A68D7F8A43013441B7887F83D
:10321000863034E00023C7F888301BE0D7F88820D8
:1032200013469B0013445B00C7F8883097F886204C
:10323000D7F888301344303BC7F88830D7F8A4302B
:103240000133C7F8A4307A68D7F8A43013441B7848
:1032500087F8863097F886301846FFF735F9034629
:10326000002BDBD10BE0D7F8A4300133C7F8A43032
:103270007A68D7F8A43013441B7887F8863097F81B
:103280008630682BEFD097F886306C2B25D1D7F895
:1032900090300133C7F89030D7F8A4300133C7F825
:1032A000A4307A68D7F8A43013441B7887F88630A6
:1032B00097F886306C2B10D1D7F890300133C7F8CF
:1032C0009030D7F8A4300133C7F8A4307A68D7F823
:1032D000A43013441B7887F8863097F88630702B1B
:1032E00005D10123C7F894300123C7F8903097F82F
:1032F0008630642B18D097F88630752B14D097F849
:103300008630782B10D097F88630582B0CD097F851
:103310008630702B08D097F88630672B04D097F84A
:103320008630662B40F0758197F88630642B0CBF91
:103330000123002387F85F3097F88630782B07D079
:1033400097F88630582B03D097F88630702B01D130
:10335000012300E0002387F85E3097F85E3003F029
:10336000010387F85E30D7F89430002B01D0022398
:1033700000E00023BB6597F88630672B03D097F8F1
:103380008630662B21D13B681B68073323F0070387
:1033900003F108013A681160D3E90023C7E910235B
:1033A000D7F88830B3F1FF3F02D10623C7F8883041
:1033B000D7F8882007F1140397ED100B2821184641
:1033C000FFF76EF9C7F898006BE0D7F89030022B42
:1033D0001CD13B681B68073323F0070303F1080186
:1033E0003A681160D3E90023C7E9122307F11401F9
:1033F00097F85E30019397F85F300093D7E9122376
:103400000846FFF737FCC7F898004AE0D7F8903035
:10341000012B23D13B681B68191D3A6811601B689A
:103420003B6597F85F30002B04D03B6DDA171C46E4
:10343000154603E03B6D00221C46154607F11401BA
:1034400097F85E30019397F85F30009322462B4641
:103450000846FFF70FFCC7F8980022E03B681B689E
:10346000191D3A6811601B687B6597F85F30002B67
:1034700004D07B6DDA179846914603E07B6D0022FD
:103480009846914607F1140197F85E30019397F83A
:103490005F30009342464B460846FFF7EBFBC7F808
:1034A00098000023C7F89C3009E0D7F88C30013B26
:1034B000C7F88C30D7F89C300133C7F89C30D7F868
:1034C0009C20BB6D9A4203D2D7F88C30002BECD1F4
:1034D0000023C7F89C3011E007F13F020123B968CF
:1034E000F868FFF777FC0246D7F8A0301344C7F816
:1034F000A030D7F89C300133C7F89C3097F83F30A4
:10350000202B12D197F88730002B0ED1D7F89820B6
:10351000D7F88C309A4208D2D7F89C20D7F8983048
:103520001344D7F88C209A42D6D8BB6DB14AB968FB
:10353000F868FFF74FFC0246D7F8A0301344C7F8ED
:10354000A0300023C7F89C3011E007F13F020123AF
:10355000B968F868FFF73EFC0246D7F8A03013447C
:10356000C7F8A030D7F89C300133C7F89C3097F8E3
:103570003F30302B0ED1D7F89820D7F88C309A42B4
:1035800008D2D7F89C20D7F898301344D7F88C206D
:103590009A42DAD807F11402D7F89830B968F86877
:1035A000FFF718FC0246D7F8A0301344C7F8A03044
:1035B0000023C7F89C3011E007F13F020123B968EE
:1035C000F868FFF707FC0246D7F8A0301344C7F8A5
:1035D000A030D7F89C300133C7F89C3097F83F30C3
:1035E000202B40F08E8197F88730002B00F08981E6
:1035F000D7F89820D7F88C309A4280F08281D7F89B
:103600009C20D7F898301344D7F88C209A42D3D80E
:1036100077E197F886304D2B12D13B681B68191D56
:103620003A6811601B683B663B6E3A68B968F86897
:1036300098470246D7F8A0301344C7F8A03063E19A
:1036400097F88630632B12D13B681B68191D3A68C6
:1036500011601B687B667B6EDAB2FB68B968104646
:103660009847D7F8A0300133C7F8A0304CE197F85D
:103670008630482B65D13B681B68191D3A6811607C
:103680001B683B673B681B68191D3A6811601B6823
:10369000FB66222387F83E30574BBB6607F13E029C
:1036A0000123B968F868FFF795FB0246D7F8A03008
:1036B0001344C7F8A0300023C7F89C302EE0FA6E00
:1036C000D7F89C3013441B781B09DBB203F00F03BF
:1036D000BA6E1A440123B968F868FFF77BFB02460B
:1036E000D7F8A0301344C7F8A030FA6ED7F89C3052
:1036F00013441B7803F00F03BA6E1A440123B96810
:10370000F868FFF767FB0246D7F8A0301344C7F804
:10371000A030D7F89C300133C7F89C30D7F89C20F4
:103720003B6F9A42CBD307F13E020123B968F86898
:10373000FFF750FB0246D7F8A0301344C7F8A0307B
:10374000E2E097F88630562B1AD13B681B68191DAA
:103750003A6811601B68BB673B681B68191D3A68B3
:1037600011601B687B67BB6F7A6FB968F868FFF7F9
:1037700003FC0246D7F8A0301344C7F8A030C3E0DA
:1037800097F88630732B08D097F88630512B04D0E9
:1037900097F88630712B40F096803B681B68191DA6
:1037A0003A6811601B68FB67144BC7F8803097F8C4
:1037B0008630512B02D1124BC7F8803097F88630F3
:1037C000712B02D10F4BC7F88030D7F88830B3F196
:1037D000FF3F0AD1FB6F002B04D0F86FFCF772FD9E
:1037E000034600E00023C7F888300023C7F89C3068
:1037F0001DE000BFD03C0108683C0108D52D000841
:10380000392F0008B32E000807F13F02D7F8806077
:103810000123B968F868B0470246D7F8A0301344CE
:10382000C7F8A030D7F89C300133C7F89C3097F820
:103830008730002B0ED1D7F88820D7F88C309A42E9
:1038400008D2D7F89C20D7F888301344D7F88C20BA
:103850009A42D9D8D7F88060D7F88830FA6FB9681B
:10386000F868B0470246D7F8A0301344C7F8A03034
:103870000023C7F89C3012E007F13F02D7F88060C0
:103880000123B968F868B0470246D7F8A03013445E
:10389000C7F8A030D7F89C300133C7F89C3097F8B0
:1038A0008730002B2FD0D7F88820D7F88C309A4259
:1038B00029D2D7F89C20D7F888301344D7F88C2029
:1038C0009A42D9D81FE097F88630252B09D1FB689A
:1038D000B96825209847D7F8A0300133C7F8A03041
:1038E00012E0FB68B9682520984797F88620FB68A6
:1038F000B96810469847D7F8A0300233C7F8A0300F
:1039000002E000BF00E000BFD7F8A4300133C7F8E1
:10391000A43012E07A68D7F8A43013441A78FB6810
:10392000B96810469847D7F8A0300133C7F8A030DF
:10393000D7F8A4300133C7F8A4307A68D7F8A43098
:1039400013441B78002B7FF4B3ABD7F8A030184694
:10395000AC37BD46BDE8F08380B586B000AFF860F7
:10396000B9607A60082101200EF094FE03467B6165
:103970007B69002B13D0FB689B687968B86898470F
:1039800002467B691A607B69FA685A607B691B682A
:10399000002B04D178690EF0B7FE00237B617B69B0
:1039A00018461837BD4680BD80B582B000AF78603C
:1039B0007B68002B09D07B685B68DB687A681268DB
:1039C0001046984778680EF09FFE00BF0837BD4646
:1039D00080BD80B584B000AFF860B9607A60786867
:1039E000FCF770FC0246BB68934219D2BA6879684A
:1039F000F8680FF0B8F80346002B11D1BB68002B14
:103A00000CD07A68BB6813441B782F2B06D0BB6898
:103A1000013B7A6813441B782F2B01D1012300E06E
:103A2000002318461037BD4680BD80B588B000AF72
:103A3000F860B9607A60F868FCF744FCB8617A68AD
:103A4000B968F8680BF02AFC0346002B01D001236B
:103A500017E00023FB610CE07A69B969F868FFF7A9
:103A6000B8FF0346002B01D004230AE0FB690133B1
:103A7000FB61F8690BF0FEFB78617B69002BEBD1F1
:103A8000002318462037BD4680BD000080B5BEB07B
:103A900002AFF860B9607A60F868FCF713FCC7F809
:103AA000E40000233B750023C7F8E8305AE0D7F85C
:103AB000E020D7F8E410F868FFF78BFF0346002BEF
:103AC00048D0D7F8E4300133D7F8E0201344C7F8E2
:103AD000DC302F21D7F8DC000FF013F8C7F8EC002A
:103AE000D7F8EC30002B09D1D7F8DC00FCF7EAFB63
:103AF0000246D7F8DC301344C7F8EC30D7F8EC2096
:103B0000D7F8DC30D21A07F17800D7F8DC30009310
:103B100013461C4A6421FEF7A3FC002387F8DB3020
:103B200007F1140207F1780311461846FCF7C0FBB1
:103B30000346002B10D007F17802BB687968104665
:103B4000984707F1780207F11403114618460EF062
:103B5000E5FF02E000BF00E000BFD7F8E830013326
:103B6000C7F8E830D7F8E8000BF084FBC7F8E000AE
:103B7000D7F8E030002B9AD100BF00BFF037BD4628
:103B800080BD00BF603C010880B586B000AF7860A2
:103B900039600023FB6007F10C03002219467868A6
:103BA0000BF07CFB786100233B617B69002B01D12A
:103BB000002313E03B6803F00203002B01D0002335
:103BC0000CE00C2101200EF065FD03463B61FA6814
:103BD0003B695A603B697A691A603B691846183735
:103BE000BD4680BD80B582B000AF78607B68002B99
:103BF00002D078680EF088FD00BF0837BD4680BD52
:103C000080B586B000AFF860B9607A60FB687B6110
:103C10007B699A687B681A447B695B689A4205D91C
:103C20007B695A687B699B68D31A7B607B691A68D9
:103C30007B699B6813447A681946B8680EF07CFD6E
:103C40007B699A687B681A447B699A607B6818462E
:103C50001837BD4680BD80B485B000AFF860B9604C
:103C60007A60002318461437BD465DF8047B704720
:103C700080B485B000AF786039607B68FB60FB681A
:103C80003A689A60FB689A68FB685B689A4203D955
:103C9000FB685A68FB689A60FB689B681846143793
:103CA000BD465DF8047B704780B483B000AF786098
:103CB0003960002318460C37BD465DF8047B704719
:103CC00080B483B000AF7860002318460C37BD463F
:103CD0005DF8047B704780B483B000AF7860002348
:103CE00018460C37BD465DF8047B704780B485B03C
:103CF00000AFF860B9607A60002318461437BD46FB
:103D00005DF8047B704780B485B000AFF860B9609F
:103D10007A6000BF1437BD465DF8047B704780B4FD
:103D200083B000AF78603960002318460C37BD4679
:103D30005DF8047B704780B483B000AF786000BF4B
:103D40000C37BD465DF8047B704780B485B000AF8A
:103D5000F860B9607A60002318461437BD465DF8F4
:103D6000047B704780B485B000AFF860B9607A60BA
:103D7000002318461437BD465DF8047B704780B4B5
:103D800083B000AF786039604FF0FF3318460C37CE
:103D9000BD465DF8047B704780B483B000AF7860A7
:103DA0003960002318460C37BD465DF8047B704728
:103DB00080B483B000AF7860002318460C37BD464E
:103DC0005DF8047B704780B483B000AF7860002357
:103DD00018460C37BD465DF8047B704782B080B54D
:103DE0008AB000AFF860381D80E806007B6307F1F9
:103DF000100300220021184606F06DFA15E0BA6B98
:103E00007B6A9A4211D17B6B396A7A6A184606F04E
:103E100091FA0346002B08D107F1100307F11802AD
:103E200092E8030083E803000AE007F1180207F1B3
:103E30002001381D262306F0A9FC0346002BDED105
:103E4000FB681A4607F1100393E8030082E80300B9
:103E5000F8682837BD46BDE8804002B0704780B59D
:103E60008CB002AFF860B9607A603B607B68002B71
:103E700002D03B68002B03D16FF001037B6236E078
:103E8000FB681B68002B06D0BB68002B03D0FB68C7
:103E90005B68002B06D14FF0FF337B627B6800220A
:103EA0001A7024E007F11C03B968184606F0F6F909
:103EB00007F11400FA683B6A0093FB6906CAFFF732
:103EC0008DFF7B69002B03D16FF003037B620EE053
:103ED0007869B969012300933B687A6800F02EF88D
:103EE00078627B6A002B02DA6FF002037B627B6AE6
:103EF00018462837BD4680BD80B483B000AF7860D7
:103F00007B682F2B02DD7B68392B0BDD7B68602BF8
:103F100002DD7B68662B05DD7B68402B04DD7B685A
:103F2000462B01DC012300E0002303F00103DBB298
:103F300018460C37BD465DF8047B704780B586B0E7
:103F400000AFF860B9607A603B6000233B613B6979
:103F50007B614FE0FA687B6913441B78252B2CD1D9
:103F60007B690233BA689A4224D97B690133FA68C3
:103F700013441B781846FFF7BFFF0346002B19D0E8
:103F80007B690233FA6813441B781846FFF7B4FFC5
:103F90000346002B0ED07B690133FA68D0187A688B
:103FA0003B6913441A46022106F0FDFC7B6902338B
:103FB0007B6119E04FF0FF333AE03B6A002B0BD0F6
:103FC000FA687B6913441B782B2B05D17A683B690F
:103FD000134420221A7007E0FA687B691A44796852
:103FE0003B690B4412781A707B6901337B613B6932
:103FF00001333B617A69BB689A4204D23B69013361
:104000003A689A42A6D83A693B689A4204D27A68DA
:104010003B69134400221A707A69BB689A4205D33F
:104020003A693B689A4201D23B6901E04FF0FF33A5
:1040300018461837BD4680BD80B483B000AF034634
:10404000FB71FB790A2B05D0FB790D2B02D0FB7994
:104050001F2B01D9012300E0002303F00103DBB291
:1040600018460C37BD465DF8047B704780B584B0B8
:1040700000AF786039600023FB603CE07A68FB6841
:1040800013441B781846FFF7D7FF034683F001035C
:10409000DBB2002B02D04FF0FF3331E0FB68002B86
:1040A0000CD07A68FB6813441B780A2B06D1FB6896
:1040B000013B7A6813441B780A2B16D0FB68032B4C
:1040C00016D97A68FB6813441B780A2B10D1FB6859
:1040D000013B7A6813441B780D2B09D1FB68023B26
:1040E0007A6813441B780A2B02D1FB68013307E07E
:1040F000FB680133FB60FA683B689A42BED3002339
:1041000018461037BD4680BD80B584B000AFF8605A
:10411000B9607A603B603B68FA681A6002E0FB684D
:104120000133FB60FA68BB689A420CD2FB681B78CB
:104130000A2B08D0FB681B78194678680EF0E1FC62
:104140000346002BEBD03B681B68FA68D31A1A466B
:104150003B685A6002E0FB680133FB60FA68BB68A9
:104160009A4208D2FB681B78194678680EF0C9FCA1
:104170000346002BEFD1FB6818461037BD4680BDC3
:1041800080B588B000AF786039603868FCF79AF87D
:10419000B8611E237B610023FB611FE0FB690233D2
:1041A0001B017A6813443B61FB691B0128337A6861
:1041B0001344FB603B695B68BA699A420BD13B6967
:1041C0001B68BA693968184606F0B4F80346002B34
:1041D00001D1FB6810E0FB690133FB61FA697B697F
:1041E0009A4208D27A68FB6902331B0113440433F4
:1041F0001B68002BD2D1002318462037BD4680BD56
:1042000080B58CB000AFF860B9607A603B60002385
:10421000FB6249E007F11003274AB968F868FFF725
:1042200073FFB86207F12003244AB96AF868FFF700
:104230006BFFF86007F11803214AB96AF868FFF7C5
:1042400063FFF8607A6A7B699A4229D002E0FB69D1
:10425000013BFB61FB69002B06D0BA69FB69013B9E
:1042600013441B78202BF2D07B6A002B01D100BFB6
:104270001EE0FB6A1B017A6813441A4607F120030B
:1042800093E8030082E80300FB6A1B017A68134489
:10429000083307F1180292E8030083E8030000E006
:1042A00000BFFB6A0133FB62FA6A3B689A42B1DBEA
:1042B00000BF3037BD4680BD443D0108483D010880
:1042C0001C3D010880B58AB000AFF860B9607A6023
:1042D000B968F868FFF7CAFE7862FB68002B03D064
:1042E0007B6AFA68134400E000233B624FF40872D3
:1042F000002178680EF048FA7B6A002B01DC7B6AAB
:10430000D0E07B68FA68C3F808227B68D3F80822FB
:104310007B68C3F818227B683A6AC3F800227A6A7D
:104320007B68C3F80C227B683A6AC3F810227B686A
:104330004FF0FF32C3F804227B68D3F804227B6875
:10434000C3F81C227B68594A396AF868FFF7DCFE1B
:10435000F8607B680833554A396AF868FFF7D4FE7D
:10436000F8607B681833524A396AF868FFF7CCFE68
:10437000F8607B685B68002B03D07B68DB68002BF0
:1043800002D14FF0FF338DE07B6898687B68DB6873
:104390001A463F21FBF73CFFF861FB69002B15D063
:1043A000FB695A1C7B681A617B689A687B68DB68CA
:1043B0001A44FB690133D31A1A467B685A617B6839
:1043C0009B68FA69D31A1A467B68DA607B6803F146
:1043D00020021E23396AF868FFF712FF3549786812
:1043E000FFF7CEFEB861BB69002B11D0BB6993E823
:1043F000030006F0FDFA02460B467B68C3F8042270
:104400007B68D3F804227B6A1A447B68C3F81C22B9
:104410007B681B6805222849184605F08BFF034678
:10442000002B0CBF01230023DBB27B617B68D3F838
:104430000432B3F1FF3F1AD17B69002B17D17B689F
:104440001E49184605F0C8FF0346002B0FD07B68B5
:104450001B49184605F0C0FF0346002B07D07B68B8
:104460000022C3F804227A6A7B68C3F81C227B68A6
:10447000D3F80432B3F1FF3F13D17B69002B10D086
:104480007B6808330F49184605F0A6FF0346002B4A
:1044900007D17B680022C3F804227A6A7B68C3F8DC
:1044A0001C227B6A18462837BD4680BD503D010856
:1044B0001C3D0108543D0108643D01086C3D0108A4
:1044C000703D0108783D010880B483B000AF78608A
:1044D0007B6840F2F512934200F09C807B68B3F554
:1044E000FB7F80F299807B68B3F5FA7F00F09080C3
:1044F0007B68B3F5FA7F00F38F807B68B3F5D17FDB
:1045000000F38A807B68B3F5C87F25DA7B68B3F552
:10451000987F71D07B68B3F5987F7DDC7B68B3F5BD
:10452000977F67D07B68B3F5977F75DC7B6840F237
:104530002D1293425CD07B68B3F5977F6CDA7B6871
:10454000642B4BD07B68642B66DB7B68CE2B63DCF3
:104550007B68C92B2EDA5FE07B68A3F5C873122B4A
:104560005AD801A252F823F0FD4500080146000880
:1045700019460008054600080946000819460008C3
:10458000194600081946000819460008194600088F
:10459000194600081946000819460008194600087F
:1045A000194600081946000819460008194600086F
:1045B0000D4600087B68C93B052B2DD801A252F897
:1045C00023F000BFE1450008E54500081946000852
:1045D000E945000819460008ED450008124B1CE0AB
:1045E000124B1AE0124B18E0124B16E0124B14E07B
:1045F000124B12E0124B10E0124B0EE0124B0CE08B
:10460000124B0AE0124B08E0124B06E0124B04E09A
:10461000124B02E0124B00E0124B18460C37BD461D
:104620005DF8047B704700BF983D0108A43D010878
:10463000AC3D0108B83D0108C43D0108D43D010866
:10464000E83D0108F03D0108003E01080C3E01086C
:104650001C3E0108283E0108343E0108443E010882
:104660005C3E01086C3E010808B480B589B002AF19
:10467000F860B9607A60B868FFF726FF02467B6889
:10468000002B01D07B6800E0214B00931346BA68F1
:104690002049F86803F046FBFB681B6E7B6107F15D
:1046A00028033B61FB6803F1580107F110037A6AA4
:1046B0001948FEF7EDFCFB681B6E0F2B1AD9FB683F
:1046C0009A6D7B690E3BD018FB681A6E7B69D31A12
:1046D000124A0B21FDF7C4FEFA6892F8B1306FF36D
:1046E000861382F8B130FB689A6D7B69043B1344F2
:1046F0000D221A70FA6892F8B1306FF3861382F8BF
:10470000B13000BF1C37BD46BDE8804001B07047E6
:10471000703E0108743E0108F1230008A83E01081C
:1047200080B582B000AF78607B685B6F1846FFF79A
:104730003BF97B6800225A677B68064A1A677A68E9
:1047400092F8B1306FF3861382F8B13000BF0837AA
:10475000BD4680BDD15F0008B0B588B004AFF86039
:10476000B9607A607B6800221C461546CDE9024597
:10477000D7E90823CDE90023044AB968F868FDF7B2
:104780006FFEFB6818461037BD46B0BDB03E01084D
:1047900080B58AB000AFF860B9607A603B60BB68F2
:1047A000082B02D0BB68022B46D13B683B624FF41A
:1047B0000063FB61FB68A433BB61FB68DB6DFA69D6
:1047C0009A4205D9FB685833F969184601F072FD21
:1047D000FB681A6EFB68DB6D9A4234D2FB68DA6DB7
:1047E000FB681B6ED31A7B62BB691B687A6A9A42AC
:1047F00002D9BB691B687B623B6A5B681B693A6ACA
:104800001068FA68916DFA68126E11447A6A9847D6
:104810007861FB681A6E7B691A44FB681A66BB698B
:104820001A687B69D21ABB691A607B69002B0CD1AC
:10483000F868FFF775FF08E0BB68092B06D1F86838
:10484000FFF76EFF02E000BF00E000BF2837BD4663
:1048500080BD000090B58DB000AFF860381D80E8D5
:1048600006003B6007F114033968184605F016FD91
:104870000023FB6202E0FB6A0133FB62BB68FA6A59
:104880009A4208D27A68B968FB6ACB1A013B134492
:104890001B782E2BEFD17A68B968FB6ACB1A1344C8
:1048A0007B60FB6ABB6012E007F124030CCB391D6F
:1048B00003C905F0B5FD0346002B08D1FB681A4675
:1048C00007F11C0393E8030082E8030034E007F1DA
:1048D0001C0207F1240107F11403184605F0CAFF72
:1048E0000346002BE0D10023FB621AE0144AFB6A66
:1048F000DB0013440CCB391D03C905F091FD0346C1
:10490000002B0BD1FB6A0133F9680D4A0C46DB0022
:10491000134493E8030084E803000DE0FB6A0233CC
:10492000FB62074AFB6A52F83330002BDED1FB688A
:104930000449184605F0B2FCF8683437BD4690BD0E
:1049400050000020983F010880B588B000AFF860A3
:10495000B9607A600023BB610023FB616FE0FB68F4
:104960001A68FB69134406223B4918460DF0D4FE31
:104970000346002B60D1FB681A68FB690633D11827
:10498000FB685A68FB69D31A9A1F07F1100318468F
:1049900005F0A1FC7B69002B0AD03B691B782F2B0B
:1049A00006D93B691B78392B02D8BB690133BB613F
:1049B00007F1100393E8030006F01AF802460B46CD
:1049C000B968C1E9002305E03B6901333B617B69BC
:1049D000013B7B617B69002B07D03B691B782F2B48
:1049E00003D93B691B78392BEED97B69002B09D0A1
:1049F0003B691B782D2B05D13B6901333B617B69FA
:104A0000013B7B6107F1100393E8030005F0F0FF21
:104A100002460B467968C1E900237B69002B15D05B
:104A20003B691B782F2B11D93B691B78392B0DD88B
:104A3000BB690133BB6109E0FB690133FB61FB69C1
:104A40009A1DFB685B689A4289D300E000BFBB698E
:104A500018462037BD4680BD1C4101082DE9F04FA6
:104A6000F7B00AAF07F5D874A4F5BA74206007F55B
:104A7000D870A0F5BC70016007F5D871A1F5BE71C2
:104A80000A6007F5D872A2F5C072136007F5D873F3
:104A9000A3F5C0731B685B69002B06D007F5D873BC
:104AA000A3F5C0731B685B6900E0CE4BC7F8943177
:104AB00007F5D873A3F5BE731B68002B0BD007F561
:104AC000D873A3F5BE7301221968D7F89401FEF7D5
:104AD00043FF034600E00023C7F8AC310023C7F8CA
:104AE000CC304FF000024FF00003C7E93023002321
:104AF000C7F8903107F5BA7207F5D873A3F5BE73FE
:104B00001968104605F0CAFB07F5D873A3F5C07302
:104B10001B68DB6807F1B80007F5BA7206CAFFF731
:104B200099FE002387F8AB31D7F8AC31002B77D151
:104B3000AD4B40F21272AD49032002F0B3FA0346C6
:104B4000002B07D007F5D873A3F5BE731968A848E2
:104B500002F002FB07F5D873A3F5BE7307F1D0008E
:104B60001B68A44A6421FDF77BFC07F1D0030122F6
:104B70001946D7F89401FEF7EFFEC7F8AC01D7F855
:104B8000AC31002B0AD0012387F8AB3107F5D8737D
:104B9000A3F5BE7207F1D003136041E007F5D873A7
:104BA000A3F5C0731B681B69002B39D007F5D873B8
:104BB000A3F5C0731B681B6901221946D7F894013D
:104BC000FEF7CAFEC7F8AC0107F5BE7207F5D87349
:104BD000A3F5BE731968104605F060FB07F5D8739E
:104BE000A3F5C0731B68DB6807F1280007F5BE72E8
:104BF00006CAFFF72FFE07F5D873A3F5C47307F1B4
:104C0000B80293E8030082E8030007F5D873A3F520
:104C1000BE7207F5D873A3F5C0731B681B691360D8
:104C2000D7F8AC31002B0FD0D7F894311C6807F1BE
:104C3000C00207F1CC0107F5D873A3F5BE7318685D
:104C4000A0470346002B14D107F5D873A3F5C07312
:104C50001B689A6807F5D873A3F5BA70664B4FF4D2
:104C6000CA710068FFF700FDD7F8AC01FEF79CFEA3
:104C700090E1D7F8CC10D7E9302307F59A70CDE949
:104C800000230A464021FFF767FD0346002B2CD086
:104C900007F5D873A3F5BC7358491868FFF770FA85
:104CA000C7F89001D7F89031002B1ED007F59A7302
:104CB0001946D7F8900105F08FFB0346002B14D15D
:104CC000D7F8AC01FEF770FE07F5D873A3F5C073F3
:104CD0001B689A6807F5D873A3F5BA70484B4FF470
:104CE00098710068FFF7C0FC54E1C823C7F8A431ED
:104CF0004FF000024FF00003C7E92C234FF00002F1
:104D00004FF00003C7E92A23D7F8CC300022BB605C
:104D1000FA60D7E90234C7E9663407F5D873A3F51A
:104D2000BC7338491868FFF72BFAC7F88C0107F5F0
:104D3000D873A3F5B67200231370D7F88C31002B0B
:104D400000F0AA8007F1A80207F1B0031946D7F8CE
:104D50008C01FFF7F9FDC7F88801D7F88831002BDF
:104D600040F39A80D7E92C23002BC0F29580D7E935
:104D70002A23002BC0F29080D7F88831012B06D16E
:104D8000D7E96623551E43F1FF36C7E92A56D7E90E
:104D90002C01D7E92A2382428B4107DBD7E92A017C
:104DA000D7E96623904271EB03032FDB4FF4D073F6
:104DB000C7F8A4314FF000024FF00003C7E96623A3
:104DC000D7F8CC3000223B627A6207F14403D7E97E
:104DD0000812CDE900120C4A64211846FDF740FB89
:104DE0005AE000BF280000209C560108303B010813
:104DF00024410108304101083841010844410108BB
:104E0000703E0108544101085C410108CE23C7F8F7
:104E1000A431D7E92A01D7E92C23B0EB020A61EBD0
:104E2000030B1AF101033B604BF100037B60D7E9F0
:104E30000034C7E96634D7E92C45D7E92C01D7E916
:104E4000662310EB020841EB030918F1FF33BB6145
:104E500049F1FF33FB61D7F8CC3000223B617A6126
:104E600007F14403D7E90412CDE90412D7E9061289
:104E7000CDE90212CDE90045494A64211846FDF703
:104E8000EFFAD7F894319C69D7F8AC311868D7E9B4
:104E90002C2313461946A047D7F8A401FFF714FBAB
:104EA0000446D7F8BC301D46D7F8B81097F8AB3198
:104EB000002B01D03B4A00E03B4A07F5D873A3F52D
:104EC000C0731B689B68002B06D007F5D873A3F549
:104ED000C0731B689B6800E0334B07F5D870A0F5E2
:104EE000BA70089307F1440307930692D7E9662343
:104EF000CDE9042307F59A730293019100952346A7
:104F0000D7F8A4212949006802F00CFF07F5D873EF
:104F1000A3F5BC731B682649184605F05DFA0346E5
:104F2000002B1AD107F5D873A3F5BA731A6892F853
:104F3000B13043F0080382F8B13007F5D873A3F518
:104F4000BA731A6892F8B1306FF3861382F8B130F1
:104F5000D7F8AC01FEF728FD1CE007F5D873A3F5E0
:104F6000BA731B68A433C7F8843107F5D873A3F567
:104F7000BA731B680F4A1A6707F5D873A3F5BA739B
:104F80001B68D7F8AC215A67D7F89821D7F8843135
:104F90001A60FFE700BF07F5DA77BD46BDE8F08F7E
:104FA0007C410108A4410108703E0108C04101088C
:104FB00010420108914700082DE9B043C2B00AAF82
:104FC000786039603B68C7F8DC30D7F8DC309B6824
:104FD0005B69002B04D0D7F8DC309B685B6900E08C
:104FE000644BC7F8D8300023C7F8C8304FF0000230
:104FF0004FF00003C7E930230023C7F8D430D7F8B7
:10500000DC30DA6807F15C007B6801932F230093A2
:105010001346594A6421FDF723FA0346642B0FD93E
:10502000564B40F26B725649012002F03BF80346A2
:10503000002B00F09A807968524802F08DF894E0D5
:10504000D7F8D8301B6807F1C00207F1C80107F193
:105050005C009847C7F8D000D7F8D030002B18D1A3
:10506000464B40F26D724649012002F01BF80346A0
:10507000002B7AD0D7F8DC301B685C6C0DF012FB8B
:1050800003461B6807F15C0221463F4802F064F8C2
:105090006BE0D7F8D03003F00403002B01D03B4B7A
:1050A00000E03B4BC7F8CC30D7F8D03003F0040316
:1050B000002B07D007F13400364B374A2821FDF783
:1050C000CFF90DE0D7F8C83000229846914607F195
:1050D0003403CDE90089314A28211846FDF7C0F98B
:1050E000D7E93023134607F10C002D4A2821FDF79C
:1050F000B7F97868FBF7E6F8014607F15C0264232C
:10510000786800F043FB0346C7F8D430D7F8DC30AA
:105110001868D7E930231146D7F8D03003F00403DC
:10512000002B05D1D7F8C83000221C46154603E0F5
:105130004FF0FF344FF0FF3507F15C0207F1340305
:105140000893CDE9064507F10C0304930391D7F8C2
:10515000CC3002937B680193D7F8CC300093134690
:10516000D7F8D4200F4902F0DDFD00BFE037BD467F
:10517000BDE8B0832800002018420108B05601089D
:10518000303B010820420108304201084442010836
:10519000703E0108484201084C3C01085042010899
:1051A000584201085C42010880B5B0B004AFF86015
:1051B000B9607A603B60514BC7F8A830504BC7F8D4
:1051C000A4307B685B69002B02D07B685B6900E0E0
:1051D0004C4BC7F8A030FB68C7F88830BB68C7F8ED
:1051E0008C307B68C7F890303B68C7F89430BB6858
:1051F0009868BB68D96807F11802002300936423FC
:10520000FEF79CFEC7F89C00D7F89C30002B09DD08
:10521000D7F89C2007F1100307F11801184605F094
:105220005AF807E0BA6807F11003083292E8030061
:1052300083E803007B689B68002B02D07B689B6837
:1052400000E0314B1A463149F86802F06BFDFB680B
:105250001B6EC7F898307B6918463A697B69194616
:105260003B6903930291D7F8A4300193D7F8A83093
:105270000093134602462649F86802F053FD254A7A
:105280002549F86802F04EFDD7F8A0305B6807F1B9
:105290008802224938689847214A2249F86802F072
:1052A00041FDFB681A6ED7F89830D31A07F17C00DD
:1052B0001D4A0A21FDF7D4F8C7F8AC00D7F8AC3086
:1052C0000A2B02D90023C7F8AC30FB689A6DD7F8D7
:1052D00098300C3B134407F17C01D7F8AC201846FA
:1052E0000DF02AFAFA6892F8B1306FF3861382F85B
:1052F000B13000BFB037BD4680BD00BFB442010829
:105300007C44010828000020703E01084046010846
:1053100098460108204801084C3C0108B94F000894
:105320007048010874480108E848010882B090B547
:105330008BB002AFF860B9607A607B633B6C1A4651
:10534000FB6B00931346844AB96C786CFDF788F8C0
:1053500078617A69BB6C9A4201D9BB6C7B61BB6C8A
:10536000013B7A6C134400221A707B690233BA6CD9
:105370009A420BD97B695A1C7A617A6C13442F22AA
:105380001A707A6C7B69134400221A70BB689A68A1
:10539000BB6BD018BB68DA68BB6BD11A7A6C7B69BF
:1053A000D418BA6C7B69D31A002200922246FEF709
:1053B000C5FDBB6C013B7A6C134400221A70786CFB
:1053C00005F0C6FB786CFAF77DFF786107E07B6932
:1053D000013B7B617A6C7B69134400221A707B6904
:1053E000012B06D97B69013B7A6C13441B782F2B68
:1053F000EDD0BB6808335949184604F0C9FF03468D
:10540000002B07D07B681B6800220021786C98472E
:10541000034600E00423FB61514B40F2DF72514927
:10542000042001F03FFE0346002B0FD0FB68596CAF
:10543000BB68DB681846BB689A68FB6901937B6CA4
:10544000009313460246484801F086FEFB69002B94
:1054500079D0FB6903F00403002B19D0BB68DB682B
:10546000002B15D0BB689A68BB68DB68013B13440E
:105470001B782F2B0CD0BB68DB681A46BB689B6877
:105480003A49F86802F04EFC4FF0FF33FB615AE0F6
:10549000FB6903F00403002B55D07A6C7B69D018AC
:1054A000BA6C7B69D31A324A1946FCF7D9FF034616
:1054B000002B09D07B681B6800220021786C98477C
:1054C000B861BB69002B16D17A6C7B69D018BA6CB5
:1054D0007B69D31A274A1946FCF7C2FF0346002B03
:1054E0000CD07B681B6800220021786C9847B8615B
:1054F000BB69002B02D0BB69FB6124E07A6C7B693D
:10550000D018BA6C7B69D31A1B4A1946FCF7A8FF5E
:105510000346002B12D07B681B6800220021786CA8
:105520009847B861BB69002B08D0BB69FB617B69F8
:105530000B337A6C134400221A7004E07A6C7B6996
:10554000134400221A70FB6918462437BD46BDE893
:10555000904002B0704700BF603C0108444201081F
:10556000C0560108303B0108EC4801080049010819
:105570003C490108484901085849010880B59AB0DA
:1055800006AF78613961FA60BB60FB685B69002B2C
:1055900002D0FB685B6900E03B4BFB64FB681A6868
:1055A00007F12C031146184604F078FE00237B62B5
:1055B0000023BB620023FB6100233B6240E0BB6B26
:1055C000002B13D107F1340307F13C0292E80300EA
:1055D00083E803003B462D49184604F05FFE07F1BF
:1055E0003C033A4692E8030083E803003B69DA682B
:1055F0003B6C9A4200D223E03B6999683A6C07F110
:105600004403184604F067FE07F144030CCB07F18E
:105610003C0103C904F004FF0346002B00D00FE057
:1056200007F1240307F13C0292E8030083E803003A
:1056300007F11C0307F1340292E8030083E803003A
:1056400007F1340207F13C0107F12C03184605F07D
:1056500011F90346002BB2D1BB6D0493BB680393D1
:1056600001AA07F11C0393E8030082E80300BB6A68
:1056700000937B6AFA6C39697869FFF757FE034635
:1056800018465037BD4680BD28000020444201081E
:1056900090B5A3B002AFF860B9607A607B685B68D0
:1056A000FB6707F11403642200927A68B968F8680E
:1056B000FFF764FFB867BB6F002B35DBBB6F03F0F0
:1056C0000403002B07D007F114037A68B968F8685F
:1056D000FFF76AFD28E0BB6F002B1ED0FB6F002B8D
:1056E0001BD0F86FFAF7EEFD044607F114031846D5
:1056F000FAF7E8FD034607F114022146F86F04F0BB
:10570000B8FF0346002B08D07B681B6807F1140222
:105710001946F86804F0AEFD06E007F114027B6854
:10572000B968F868FFF79AF900BF8437BD4690BDA5
:1057300080B483B000AF78607B682F2B02DD7B687C
:10574000392B17DD7B68602B02DD7B687A2B11DD3E
:105750007B68402B02DD7B685A2B0BDD7B682E2B90
:1057600008D07B685F2B05D07B682D2B02D07B682F
:105770007E2B01D1012300E0002303F00103DBB203
:1057800018460C37BD465DF8047B704780B588B07D
:1057900000AFF860B9607A603B600023BB61002312
:1057A000FB6133E0FA68FB6913441B787B61BB69DA
:1057B00004333A689A4201D800232CE07869FFF755
:1057C000B7FF0346002B0AD0FA68FB691A44BB698D
:1057D000591CB96179680B4412781A7013E0BB69DF
:1057E0005A1CBA617A68134425221A70FA68FB6958
:1057F000D0187A68BB6913441A46012105F04CF8A9
:10580000BB690233BB61FB690133FB61FA69BB68A9
:105810009A42C7D3BB6918462037BD4680BD0000F9
:1058200090B5CFB002AF07F59874A4F592742060DC
:1058300007F59870A0F59470016007F59871A1F5CF
:1058400096710A6007F59872A2F59872136007F5D1
:105850009873A3F592737A491868FEF791FCC7F81C
:105860002C0107F59873A3F598731B6800221A7032
:1058700007F59873A3F598731B681A7807F5987362
:10588000A3F594731B681A70D7F82C31002B5FD0E6
:10589000D7F82C315B68062B5AD9D7F82C311B6806
:1058A0000622684918460CF037FF0346002B4FD1FB
:1058B000D7F82C311B68981DD7F82C315B68063B54
:1058C00007F114021946FBF787FEC7F82801D7F83D
:1058D000283123EAE3731A4607F114033A211846E4
:1058E000FAF796FCC7F82401D7F82431002B00F012
:1058F000A18007F11403D7F82421D21A07F5987371
:10590000A3F5967107F59873A3F5947007F1140346
:10591000009313464C4A09680068FCF7A1FD07F1A3
:105920001403D7F82421D31AD7F82821D31A5A1EE2
:10593000D7F82431013307F59871A1F598700093D9
:105940001346414AD7F840110068FCF789FD71E021
:10595000D7F82C31002B24D0D7F82C315B68072BDB
:105960001FD9D7F82C311B680722384918460CF08C
:10597000D3FE0346002B14D1D7F82C315B68DA1F15
:10598000D7F82C311B68073307F59871A1F598708B
:10599000009313462C4AD7F840110068FCF760FDCD
:1059A00049E007F59873A3F5927329491868FEF743
:1059B000E7FBC7F82C01D7F82C31002B28D007F5CE
:1059C0008E730C222349184604F085FC07F58A7073
:1059D000D7F82C21D7F820310093D7F81C3106CA0C
:1059E00000F063F8D7F81831002B24D0D7F818311D
:1059F0001946D7F8143107F59872A2F598700093FC
:105A00000B46114AD7F840110068FCF729FD12E057
:105A100007F59873A3F592731B6803F1100007F55F
:105A20009873A3F59872D7F8403112680949FEF7C8
:105A300016FA00E000BF00BF07F59A77BD4690BD9B
:105A40006849010878490108603C0108804901085B
:105A5000884901089049010880B584B000AFF8601A
:105A60003B1D83E80600BB68012B13D97B681B78BC
:105A7000222B0FD17A68BB68013B13441B78222B81
:105A800008D17B68591CBB689A1EFB68184604F055
:105A900022FC06E0FB681A463B1D93E8030082E8FF
:105AA0000300F8681037BD4680BD82B080B58CB069
:105AB00000AFF860381D80E80600FB630023FB623E
:105AC00072E07A68396CFB6A0B4413441B783D2BF7
:105AD00067D17A68FB6A1344F96B3A6C18460CF08C
